:020000040800F2
:10000000280800205D0200086D1D0008191C00086A
:10001000691D0008F9060008991F0008000000008B
:10002000000000000000000000000000751D000836
:100030001507000800000000711D0008791D000868
:1000400077020008770200087702000877020008AC
:10005000770200087702000877020008770200089C
:10006000770200087702000877020008770200088C
:10007000770200087702000877020008770200087C
:1000800077020008770200087702000809070008D5
:10009000FD060008770200087702000877020008D2
:1000A000770200087702000877020008770200084C
:1000B000770200087702000877020008770200083C
:1000C000770200087702000877020008770200082C
:1000D000770200087702000877020008770200081C
:1000E000770200087702000877020008770200080C
:1000F00077020008770200087702000877020008FC
:1001000077020008770200087702000877020008EB
:100110007702000877020008491E000877020008ED
:1001200077020008770200087702000877020008CB
:1001300077020008770200087702000877020008BB
:1001400077020008770200087702000877020008AB
:10015000770200087702000877020008770200089B
:10016000770200087702000877020008770200088B
:1001700077020008770200087702000800000000FC
:10018000770200087702000877020008770200086B
:10019000770200087702000877020008770200085B
:1001A00000000000000000007702000800F002F8E4
:1001B00000F045F80AA090E8000C82448344AAF1BC
:1001C0000107DA4501D100F03AF8AFF2090EBAE8BA
:1001D0000F0013F0010F18BFFB1A43F0010318477B
:1001E0005C2C00007C2C0000103A24BF78C878C139
:1001F000FAD8520724BF30C830C144BF04680C602D
:10020000704700000023002400250026103A28BF74
:1002100078C1FBD8520728BF30C148BF0B60704778
:100220001FB502F0E0FD9DE8030000F06BF900F05F
:10023000B5F81FBD10B5002000F09AF910BD00F010
:10024000BEF91146FFF7ECFF02F024FA00F0F6F9D0
:1002500003B4FFF7EFFF03BC00F02AF90948804719
:1002600009480047FEE7FEE7FEE7FEE7FEE7FEE798
:10027000FEE7FEE7FEE7FEE704480549054A064BB0
:1002800070470000351E0008AD010008280200205C
:1002900028080020280400202804002053EA020C2B
:1002A00000F069802DE9F04B4FF00006002B1FBFD6
:1002B000B3FA83F503FA05F424FA05F65E4012BF9B
:1002C0001643B2FA82F502FA05F4C5F120051EBF05
:1002D00022FA05FC44EA0C04203556EA044C4FEAA5
:1002E000144418BF641C4FF000084FF000099042FE
:1002F00071EB030C39D3002919BFB1FA81F701FA68
:1003000007F6B0FA80F700FA07F6C7F120071EBF1C
:1003100020FA07FC46EA0C062037B6FBF4FCA7EBF4
:100320000507103F07F01F0BCBF120062CFA06F64D
:100330000CFA0BFB44BFB3460026202FA4BF5E4639
:100340004FF0000B5BEA060C08BF4FF0010B19EBF6
:100350000B0948EB0608ABFB027C06FB02CC0BFB4F
:1003600003CCC01B71EB0C01C1E70B4602464146B2
:100370004846BDE8F08B13B5084318BF4FF0FF3077
:100380000146AFF30080BDE81C4070470B460146B4
:10039000184600F076B870477047704770B5064C45
:1003A0007C44064D7D4404E02046016808448047B3
:1003B000241DAC42F8D170BDB82A0000B82A000054
:1003C00070B5064600F07AF8056806F10B0020F0DB
:1003D0000704B4429CBF002070BD2B466A68BAB1C6
:1003E0001068A04210D304F1080188423CBF506855
:1003F000586007D35168101941601168091B0160EA
:1004000058601460101D70BD13465268002AE7D171
:100410002146284600F062F80028DED170BD70B594
:100420000446051F00F04AF80068002C14BF446819
:1004300070BD002C18BFAC423CBF20466468F8D3A6
:1004400001680A18AA4218BF456003D12A68054608
:100450001144016028684119A1421CBF6C6070BD45
:100460006168696021680844286070BD10B500F0BB
:100470002DF8006810BD10B5044600F027F80460A0
:1004800010BD2DE9F041074615460E461020FFF736
:1004900097FF04000AD06760C4E9026500F012F813
:1004A0000168216004600020BDE8F0810120FBE7C5
:1004B00001491820ABBEFEE7260002000048704745
:1004C000580000200048704788000020004870470E
:1004D00050000020704770477047704738B5044699
:1004E0000A4600206946AFF30080002808BF38BDE7
:1004F00002460099204600F087F8012038BD01200F
:1005000000F0AAB8F8B5AFF30080054600200C460D
:10051000102000BF0646A819A0420DD932466946F0
:100520000020AFF30080070008BF00F095F80098A6
:10053000A04218BF0546C419FFF7C0FF0560074673
:10054000F01D20F007004619284600F00AF8B442D2
:1005500008BFF8BDA21B31463868BDE8F84000F07E
:1005600053B800210160C0E90110704710207047A6
:100570002DE9F0410646FFF7A5FF8046454613E00A
:1005800016B1E068B0420ED120682860D4E90101BC
:10059000D8F8007088472046FFF741FFD8F80000E0
:1005A000B842EBD100E025462C68002CE8D1BDE82C
:1005B000F0810000004870475000002070477546E9
:1005C000FFF7F8FFAE4605006946534620F00700E6
:1005D000854618B020B5FFF74FFEBDE820404FF02C
:1005E00000064FF000074FF000084FF0000BAC463C
:1005F000ACE8C009ACE8C009ACE8C009ACE8C00987
:1006000021F007018D467047034640688C4600285C
:1006100018BF88423CBF03464068F8D318681844A6
:10062000884207D00CF1030020F00700001D411A9A
:10063000521A0146081D0A60FFF7F1BE10B50446C4
:10064000AFF300802046BDE81040FFF701BE002850
:1006500001D0FFF72DBF704710B500F01DF8BDE8C1
:100660001040FFF7F4BF70B505460C460A2000E0C5
:100670006D1C00F039F835B128780028F8D102E077
:10068000641C00F031F814B120780028F8D1BDE8DE
:1006900070400A2000F028B810B5012805D00021CC
:1006A00003A0FFF7E0FF012010BD09A1F8E700005B
:1006B00053494752544D454D3A204F7574206F664B
:1006C0002068656170206D656D6F727900000000B3
:1006D0003A2048656170206D656D6F727920636F97
:1006E000727275707465640008B569468DF8000013
:1006F0000320ABBE08BD0000FEE7000040F2D000C2
:10070000C2F2000000F084B940F2D000C2F2000052
:1007100000F07EB97047000072B600BFFEE700002F
:1007200090F82020013A012A08D8006800F114024C
:100730000020136819431160704700BF00F12402C4
:1007400001204FF4802113681943116070470000A5
:1007500010B590F820E0D0F800C0AEF1010EBEF167
:10076000010FDCF808E011D81EF0E05F18D0CEF3DE
:10077000016E012000FA0EF018608B68D3B1486852
:10078000CC6844EAC000034318E000BF00F1240134
:1007900001204FF480220B681A430A6010BD00BF8D
:1007A00000F1240101204FF400120B681A430A6083
:1007B00010BD00BF0868CB6843EA40530CEB0E1035
:1007C000C0F880310B69C0F88431097D012905D159
:1007D00000F5C2710B6843F480730B605168C0F878
:1007E0008C11126800F5C071C0F888210020012228
:1007F0000B681A430A6010BDB0B590F82020013A8A
:10080000012A2FD846F20060C4F20000026842F0CC
:1008100001020260026822F47C520260D1F814E006
:10082000CC694A6A0368012C43EA022202600EF096
:100830001F024FF0010303FA02F2C3696FEA020CD0
:1008400023EA0203C36113D02CBBC36803EA0C0381
:10085000C360CB688C8844EA034300EBCE04236476
:100860000B4611E0416A41F4802141620120B0BD94
:10087000C3681343C3600B688C8844EA034300EBEE
:10088000CE04236401F10C038C681B8843EA044303
:1008900000EBCE04636443688D6943EA0204D1F837
:1008A00010E0096A002D08BF03EA0C0444604369A4
:1008B000BEF1000F43EA020408BF03EA0C04012959
:1008C000446102D1C1691143C161016821F0010194
:1008D00001600020B0BD00007047000010B590F826
:1008E0002040013C012C7BD8D0F800C0002900F04A
:1008F0008180DCF81040A40700F081800CEB011C23
:10090000DCF8B0410CF5D87E14F004049460DCF8F7
:10091000B04119BFE4085460640D1460DEF8004073
:100920000CF5DA7E04F00204D460DCF8B44124074C
:100930005ABFDEF8004004F00F0408241461DEF80A
:1009400000400029C4F307249461DEF800404FEA18
:1009500014445461DCF8B8211A70026802EB0112E9
:10096000D2F8B8214FEA12225A70026802EB011243
:10097000D2F8B8214FEA12429A70026802EB0112D3
:10098000D2F8B8214FEA1262DA70026802EB011263
:10099000D2F8BC211A71026802EB0112D2F8BC2114
:1009A0004FEA12225A71026802EB0112D2F8BC21FE
:1009B0004FEA12429A71026802EB0112D2F8BC218E
:1009C0004FEA1262DA71006814BF00F1100100F101
:1009D0000C01002020220B681A430A6010BD00BFE2
:1009E00000F1240101204FF480220B681A430A60B1
:1009F00010BD00BFDCF80C40A4077FF47FAF00F10E
:100A0000240101204FF400120B681A430A6010BD44
:100A10002DE9F04F81B0044600684669D0F8049093
:100A20008768D0F80CB0D0F810A0D0F81880F10783
:100A300004D1002530071DD424E000BFF90710D0F1
:100A40000121BA07816009D4780700F1AF80380727
:100A500000F1B680204600F031FA02E0204600F0B6
:100A60002FFA0025F80500F18780F80300F1B18026
:100A7000300707D51BF0100004D0206845F400753E
:100A80001021C160700708D51BF0080005D0206850
:100A90000821C160204600F0A9F9B00706D52068FA
:100AA000C068800702D0204600F0A2F9700607D582
:100AB0001AF0100004D0206845F48065102101610F
:100AC000B00608D51AF0080005D020680821016199
:100AD000204600F0BFF9F00606D5206800698007BF
:100AE00002D0204600F0B8F9B00308D519F0100084
:100AF00005D0206810214160204600F0AFF9F003D6
:100B000008D519F0080005D020680821416020466A
:100B100000F0E0F9300440F19B805FEA497040F159
:100B2000948006F4807008EA102028435FEA8871F8
:100B3000014648BF41F00201B20558BF01465FEAD5
:100B400048700D4648BF45F00405700558BF0D4676
:100B5000300540F17A8018F0700000F0768010388F
:100B6000000905286CD8DFE800F003595D6165696C
:100B700045F0080564E000BF20684FF48071BA05B5
:100B800081600BD4780515D438051DD4204600F0BB
:100B900099F9F8037FF56CAF1BE000BF204600F029
:100BA00093F9F8037FF564AF13E000BF4FF40065DD
:100BB00058E700BF05F50055F8037FF559AF08E089
:100BC0004FF480554EE700BF05F58045F8037FF5EB
:100BD0004FAF20684FF48031BA0381600AD47803A4
:100BE00010D4380314D4204600F070F930073FF5D4
:100BF00041AF47E7204600F06BF930073FF53AAFC9
:100C000040E700BF05F5004530073FF533AF39E752
:100C100005F5803530073FF52DAF33E745F010057A
:100C20000EE000BF45F020050AE000BF45F040059A
:100C300006E000BF45F0800502E000BF45F4807586
:100C40002068816921F07001816120680421416080
:100C500055B1606A40EA05012046616201B0BDE815
:100C6000F04FFFF739BE00BF01B0BDE8F08F0000C4
:100C7000B0B5C8B1044690F8200010B9204600F085
:100C800071F82068016841F00101016000F020FA6C
:100C9000054600BF20684168C90707D100F018FA6F
:100CA000401B0B28F6D312E00120B0BD016821F0F3
:100CB0000201016000F00CFA054600BF206841689F
:100CC00089070DD500F004FA401B0B28F6D3606AA3
:100CD000052140F400306062012084F82010B0BD8E
:100CE000217E0268012922F0800208BF8032026062
:100CF000617E0268012922F0400208BF4032026092
:100D0000A17E0268012922F0200208BF2032026081
:100D1000E17E0268012922F0100218BF1032026041
:100D2000217F0268012922F0080208BF0832026010
:100D3000617F0268012922F0040208BF04320260C8
:100D4000D4E901C2D4E9033561691A432A43114346
:100D5000ACF101021143C16100200121606284F8FD
:100D60002010B0BD80B586B0016846F20040C4F2E4
:100D70000000814202D006B080BD00BF002143F6D2
:100D800030020191C4F20202136900F5D43043F03D
:100D900000731361136903F000730193019B0191C8
:100DA000136843F0080313601268022302F008027C
:100DB0000192019ACDE9023109210322059101A98D
:100DC0000192049200F09CF813200021002200F010
:100DD00003FA132000F0ECF914200021002200F0A7
:100DE000FBF9142000F0E4F906B080BD7047000064
:100DF00010B5006846F20041C4F2000188420ED1ED
:100E000040F2D00040F2002240F2F813C2F200009B
:100E1000C2F20002C2F200030021FFF75FFD40F2C0
:100E20000020C2F20000006840F20121884218BF91
:100E300010BD40F24014C2F2000440F2F811C2F2B8
:100E40000001204601F0C4F82046BDE8104001F042
:100E5000BBB90000704700007047000070470000F9
:100E6000B0B5044690F8200001281DD1022084F876
:100E700020002068016821F00101016000F028F9DC
:100E8000054600BF20684068C00713D000F020F975
:100E9000401B0B28F6D3606A40F4003060620520E6
:100EA00084F820000120B0BD606A40F40020606238
:100EB0000120B0BD00206062B0BD0000704700009E
:100EC0007047000070470000704700007047000046
:100ED0007047000070470000B0B5044600F0F8F815
:100EE000054640F20000C2F200000078611C18BF05
:100EF000044400BF00F0ECF8401BA042FAD3B0BDA0
:100F00002DE9F04F82B000F13E4242F2004502F17D
:100F1000FF77C4F202050A2243F6004E4FEAB726D5
:100F2000A84208BF0922C4F2010E092E38BF4FEAB9
:100F3000B7220125002600274FF00008009208E0A4
:100F400008F101080437B8F1100F06F1020600F0AD
:100F5000A7800C6805FA08F914EA090FF0D0D1F857
:100F600004B003220BF0030CACF10104B240012CDD
:100F70006FEA020A10D88268CC6802EA0A02B4401A
:100F8000224382604268CBF3001422EA090204FA89
:100F900008F42243426005E0BCF1030F02D14FF098
:100FA000030C20E0C2688C6802EA0A02B4402243C3
:100FB000BCF1020FC26016D16FF0030202EA5802C0
:100FC0000244D2F820C007F01C050F230C69AB4087
:100FD0002CEA030304FA05F52B431362D1F804B09D
:100FE00001250BF0030C02680CFA06F302EA0A0270
:100FF0001A431BF4403F0260A2D0002243F6440390
:101000000192C4F202031A684FF6084C42F480427F
:101010001A601A68CFF6FF7C02F480420192019AAE
:1010200028F00302724452F80C3007F00C050F242C
:10103000AC40A343009C04FA05F52B4342F80C3066
:10104000DEF808204B6842EA090543F60C4CDC0246
:1010500058BF22EA0905CEF80850C4F2010CDCF8AA
:1010600000209C0242EA090558BF22EA0905CCF893
:101070000050DEF804209C0342EA090558BF22EA2A
:101080000905CEF80450DEF80020DB0342EA09052A
:1010900058BF22EA0905CEF80050012550E700BFED
:1010A00002B0BDE8F08F00000069084018BF0120C1
:1010B00070470000426902EA0103914341EA03419B
:1010C00081617047002A08BF0904816170470000F0
:1010D00040F22420C2F200000068704740F2000095
:1010E00040F22421C2F20000C2F2000100780A6836
:1010F000104408607047000080B543F60040C4F219
:101100000200016841F400710160016841F48061EE
:101110000160016841F480710160032000F088F8EB
:101120000F2000F005F800F027F8002080BD000037
:1011300070B540F20006C2F2000640F208013278B3
:10114000C2F200014FF47A730968B3FBF2F204466D
:10115000B1FBF2F1084600F059FB0F2C4FF00105EE
:1011600008D838B94FF0FF3021460022002500F0A2
:1011700033F87460284670BD82B0002043F6400109
:101180000190C4F202014A6842F480424A604A680F
:1011900002F480420192019A0090086840F0805069
:1011A0000860086800F080500090009802B0704716
:1011B000002848BF7047C1B200F01F00012202FAA8
:1011C00000F04EF20012CEF2000242EAD10121F00C
:1011D000030108607047000010B54EF60C5CCEF2BB
:1011E000000CDCF80030C3F3022E8EF00704042C50
:1011F00028BF0424BEF103034FF0FF3E0EFA04F4AF
:1012000038BF0023A14399400EFA03F39A431143D8
:1012100000F00F0200F160430901043A03F5644352
:101220006244002848BF02F10C03197010BD000091
:101230004EF60C51CEF200010A684FF6FF031A4039
:1012400060F30A2242F0806040F0FD700860704751
:1012500070B582B00020019043F64000C4F2020055
:101260000168402641F0805101600068C4F20E26FA
:1012700000F080500190019847F204050120C4F26B
:1012800000053060FFF724FF044600BF2868C00354
:1012900006D4FFF71DFF001BB0F57A7FF6D90EE0EC
:1012A00001207060FFF714FF044600BF2868800328
:1012B00008D4FFF70DFF001BB0F57A7FF6D90320A5
:1012C00002B070BD002002B070BD00002DE9F041F9
:1012D000002800F08B8043F60808C4F20208044698
:1012E000D8F8F8030D4600F00F00884207D288F8BE
:1012F000F853D8F8F80300F00F00A84276D1206820
:10130000810717D5410705D5D8F8001041F4E05101
:10131000C8F80010010705D5D8F8001041F4604165
:10132000C8F80010D8F80010A26821F0F0011143AD
:10133000C8F80010C0073FD1D8F8F80300F00F003C
:10134000A84207D988F8F853D8F8F80300F00F003E
:10135000A8424BD12068410707D5D8F80010E268B1
:1013600021F4E0511143C8F80010000708D5D8F85F
:101370000000216920F4604040EAC100C8F8000084
:1013800000F054F8D8F8001042F62C62C1F30311B3
:10139000C0F60002515C40F2080220FA01F140F26E
:1013A0000400C2F200000068C2F200021160FFF700
:1013B000BFFE0020BDE8F0816068811E022907D2CF
:1013C00058F8081C89015CBF0120BDE8F08111E0DC
:1013D000012807D158F8081C89035CBF0120BDE82B
:1013E000F08107E058F8081C890703D40120BDE804
:1013F000F08100BFD8F8001021F003010843C8F8BD
:101400000000FFF765FE064641F28837D8F8000075
:10141000616800F00C00B0EB810F8DD0FFF758FE33
:10142000801BB842F2D90320BDE8F08110B543F625
:101430000404C4F20204606800F00C0008280BD019
:10144000042819BF42F20040C0F2F40041F6003017
:10145000C0F2B70010BD00BF2068216823684902B0
:1014600041F60031C0F2B70100F03F02C3F388102B
:101470005CBF42F20041C0F2F401A1FB0001002375
:10148000FEF70CFF21680222C1F3014102EB41018A
:10149000B0FBF1F010BD00002DE9F04182B0002852
:1014A00068D00446007843F60006C007C4F202067E
:1014B0000BD0B06800F00C00042840F09F8030682A
:1014C000800302D56068002854D0207880071AD5A0
:1014D000B06810F00C0F09D0B06800F00C000828BC
:1014E00040F0A6807068400200F1A280306880075A
:1014F00002D5E06801283DD13068216920F0F8006C
:1015000040EAC10030602078000737D420784007D7
:101510004CD4A56955B3B06800F00C00082840F021
:10152000BB80012D26D07068E16900F480028A42F8
:1015300020D1216A00F03F028A421BD147F6C071D8
:10154000626A0140B1EB821F14D1A16A4FF6FF73AA
:10155000C903994300F44032A1F580318A4209D190
:10156000E16A00F07060B0EB016F03D1002002B0BF
:10157000BDE8F081012002B0BDE8F081606900287B
:1015800040F20000C4F2472076D00121C0F8801E4E
:10159000FFF79EFD054600BF706F8007B6D4FFF7CA
:1015A00097FD401B0228F7D9DDE000BF306C10F03A
:1015B00080580AD100200190306C40F08050306497
:1015C000306C00F080500190019847F20007C4F29F
:1015D00000073868C00541D4386840F4807038602E
:1015E000FFF776FD054600BF3868C00536D4FFF723
:1015F0006FFD401B0228F7D9B5E000BFB06800F0CE
:101600000C00082803D1706840023FF558AF6068AD
:10161000B0F5803F07D0B0F5A02F40F08D80306846
:1016200040F480203060306840F4803030608DE0DD
:10163000E068002852D00020C4F247200121016058
:10164000FFF746FD054600BF306880073FF554AF01
:10165000FFF73EFD401B0228F6D984E0A068012870
:1016600005D005284ED1306F40F004003067306F50
:1016700040F0010030674FE00021C0F8801EFFF706
:1016800027FD0546706F80077FF540AFFFF720FD0F
:10169000401B0228F6D966E00027C4F24727002045
:1016A0003866FFF715FD022D05460BD13068800125
:1016B0005ED5FFF70DFD401B02284FF00300F5D962
:1016C00055E700BF306880017FF550AFFFF700FDA0
:1016D000401B02284FF00300F4D948E70020C4F271
:1016E000472000210160FFF7F3FC054630688007C2
:1016F0007FF509AFFFF7ECFC401B02284FF0030019
:10170000F4D934E7316F002821F001013167316FDE
:1017100021F0040131674DD0FFF7DAFC054641F2B4
:10172000883700BF306F800756D4FFF7D1FC401BCD
:10173000B842F7D917E000BF3168002821F48031A2
:101740003160316821F4802131604FD0FFF7C0FC57
:10175000054600BF306880033FF5B7AEFFF7B8FC21
:10176000401B6428F6D9032002B0BDE8F08100BF19
:1017700004F11C052FCD084340EA8210D9034FF62F
:10178000FF729143A1F5803140EA05600843706023
:1017900001203866FFF79CFC044600BF30688001DA
:1017A0003FF5E4AEFFF794FC001B02284FF0030066
:1017B000F4D9DCE6FFF78CFC054641F2883700BF20
:1017C000306F800708D5FFF783FC401BB8424FF00D
:1017D0000300F5D9CBE600BFB8F1000F7FF499AE56
:1017E000306C20F08050306493E600BFFFF770FC4F
:1017F000054600BF306880037FF567AEFFF768FCE1
:10180000401B64284FF00300F4D9B0E6411E0020CD
:10181000B0EB116F1CBF012070474EF21002CEF2E8
:10182000000251604EF62351CEF20001F0230B70FE
:1018300007219060116070477047000070470000FA
:1018400010B590F83C20012A4FF0020251D080F8E8
:101850003D200268D2F804E0D2F808C00C682EF0EF
:101860007003234341F2FF74C4F20004A2425360A8
:101870000EDC40F2FF73C4F200039A4216DCB2F1B0
:10188000804F2BD040F20043C4F2000324E000BF9D
:1018900040F2FF33C4F201039A4213DC41F6000325
:1018A000C4F200039A4219D0002313E040F600036B
:1018B000C4F200039A4211D040F60043C4F2000380
:1018C0000AE000BF44F20003C4F201039A4205D0CB
:1018D00040F20043C4F201039A4204D149682CF05B
:1018E0008003194391600121002280F83D1080F8A7
:1018F0003C20104610BD0000002804BF01207047A6
:1019000010B5044690F83D0028B9002084F83C004A
:10191000204600F01FF8022084F83D002068211DB9
:1019200000F098FA012084F8460084F83E0084F81C
:101930003F0084F8400084F8410084F8420084F8B5
:10194000430084F8440084F8450084F83D000020FA
:1019500010BD000080B582B0006841F20001C4F201
:10196000000188421CBF02B080BD0020019043F6F8
:101970004000C4F202000168002241F01001016041
:101980000068002100F01000019001983620FFF758
:1019900023FC362002B0BDE88040FFF709BC000000
:1019A00090F83D1001291CBF01207047022180F8EA
:1019B0003D10006841F2FF72C168C4F2000290421B
:1019C00041F00101C1600DDC40F2FF71C4F2000181
:1019D000884215DCB0F1804F2AD040F20041C4F2B9
:1019E000000123E040F2FF31C4F20101884213DC20
:1019F00041F60001C4F20001884219D0002113E031
:101A000040F60001C4F20001884211D040F60041C6
:101A1000C4F200010AE000BF44F20001C4F2010177
:101A2000884205D040F20041C4F20101884206D14B
:101A3000816801F00701062904BF00207047016892
:101A400041F0010101600020704700007047000074
:101A500070B504460068C5680669B10716D515F06B
:101A6000020113D06FF00201016101212177806929
:101A7000800703D02046FFF7E9FF05E0204600F08D
:101A80008FF8204600F08EF800202077700719D5D7
:101A900015F0040016D020686FF0040101610221E6
:101AA0002177806910F4407F04D02046FFF7CEFFF5
:101AB00006E000BF204600F073F8204600F072F800
:101AC00000202077300717D515F0080014D02068C3
:101AD0006FF00801016104212177C069800703D0FC
:101AE0002046FFF7B3FF05E0204600F059F82046F6
:101AF00000F058F800202077F00619D515F01000F6
:101B000016D020686FF01001016108212177C069AB
:101B100010F4407F04D02046FFF798FF06E000BF96
:101B2000204600F03DF8204600F03CF800202077E9
:101B3000F00718BF15F0010002D1300609D412E0F9
:101B400020686FF001010161204600F02DF8300699
:101B500009D515F0800006D020686FF08001016182
:101B60002046FFF769FE700609D515F0400006D043
:101B700020686FF040010161204600F04BF8B0068C
:101B800058BF70BD15F0200008D021686FF020020A
:101B900020460A61BDE87040FFF750BE70BD0000EE
:101BA000704700007047000080B540F2F801C2F2B3
:101BB000000100680968884218BF80BD40F2C0007B
:101BC000C2F20000006838B140F21C20C2F20000EE
:101BD00000214160016009E040F2401040F21C2108
:101BE000C2F20000C2F2000100F0D8FA40F2D000C8
:101BF00040F2340140F21C2240F2CC03C2F2000059
:101C0000C2F20001C2F20002C2F20003BDE880404D
:101C1000FEF79EBD70470000FEE7000080B540F271
:101C2000D00046F20041C2F20000C4F200010322DB
:101C3000002380E80E0000F10C014FF4102C4FF44B
:101C4000401E81E8085083618383FFF711F8002864
:101C500008BF80BDBDE88040FEF75EBDF0B587B02F
:101C6000002643F63000CDE905660196C4F2020075
:101C7000016841F2004441F0010101600168C4F2D1
:101C8000020401F00101019101990196016800220D
:101C900041F00801016001684FF4804701F008013C
:101CA000019101990196016841F08001016001688C
:101CB00001F08001019101990196016841F0020152
:101CC0000160016801F0020101910199019601682A
:101CD00041F02001016000684FF4804100F02000D5
:101CE000019001982046FFF7EDF90420CDE90206A6
:101CF000022002AD0490A4F580502946FFF700F9B8
:101D00000120CDE903062046294602970596FFF7F4
:101D1000F7F807B0F0BD000080B582B040F2F800DF
:101D200041F200020021C2F20000C4F200020E23C0
:101D300040F6B73CCDE90011C0E90023C0E9021C20
:101D40008161FFF7D9FD002818BFFEF7E5FC40F2DE
:101D5000F800C2F200006946FFF772FD002818BFC4
:101D6000FEF7DAFC02B080BDFEE70000FEE70000EF
:101D70007047000070470000FFF7B0B980B592B01F
:101D8000002043F64001CDE90A00CDE908000590A6
:101D9000CDE90300CDE901000090C4F202010A6818
:101DA00042F080520A60096801F080510091009968
:101DB000009047F20000C4F20000016841F4404185
:101DC000016000684FF4800100F4404000900098EA
:101DD000012006904FF480300D91062107900220DB
:101DE0000E91B4210C90CDE90F100420119006A89B
:101DF000FFF752FB10B172B6FEE700BFFFF728FAFB
:101E000010B172B6FEE700BF0F20019002200290D1
:101E1000002003904FF4A05004904FF480500590A0
:101E200001A80521FFF752FA10B172B6FEE700BF14
:101E300012B080BD4EF68850CEF20000016841F429
:101E4000700101607047000040F2F800C2F200002B
:101E5000FFF7FEBDB0B540F6FF3E0568C4F2000EC8
:101E600040F2004C7045C4F2010C27DCB0F1804F09
:101E700031D040F20043C4F2000398422BD040F628
:101E80000003C4F20003984225D041F6FF73C4F268
:101E9000000398422ADC70453CDCB0F1804F5FD0F3
:101EA00040F20043C4F20003984259D040F60003C8
:101EB000C4F20003984253D057E000BF40F60043FD
:101EC000C4F20003984206D0604504D00023C4F257
:101ED00001039842D9D14B6825F0700243EA02050C
:101EE00041F6FF73C4F200039842D4DD43F6FF735A
:101EF000C4F20103984221DC42F20003C4F2000361
:101F000098422DD00023C4F20103984228D06045A6
:101F100026D02AE040F60043C4F2000398421FD0C6
:101F200041F60003C4F20003984219D041F6004381
:101F3000C4F20003984213D017E000BF44F200033C
:101F4000C4F2010398420BD044F60003C4F201032B
:101F5000984205D044F20043C4F20103984204D1F0
:101F6000CB6825F4407243EA02050A688C684B6925
:101F7000C46240F480648262644504BF09690163FD
:101F8000026825F0800142F0040219430260012238
:101F900042610160B0BD0000FEE7000010B540F2F4
:101FA0004014C2F200049FED090A2046012100F00E
:101FB000E3F942F29D4040F20002C0F60000C0F694
:101FC00000022146BDE81040FEF7E0B99A99994118
:101FD00090ED042A9FED6B1A80ED052A0A8812BA4B
:101FE000120C00EE102AB8EE400A80EE011A9FEDA6
:101FF000660A21EE003A9FED651A33EE422AB4EEEE
:10200000412AF1EE10FA80ED043A80F299809FEDBA
:10201000611AB4EE412AF1EE10FA1BDA32EE002A10
:10202000B4EE412AF1EE10FA14DA32EE002AB4EEE0
:10203000412AF1EE10FA0DDA32EE002AB4EE412A0E
:10204000F1EE10FA06DA32EE002AB4EE412AF1EE91
:1020500010FAE3DB90ED001A90ED024A82EE013AAD
:1020600080ED062A33EE042AB4EE402AF1EE10FA8F
:1020700080ED033A37DB9FED463A00BF32EE032A8C
:10208000B4EE402AF1EE10FA2DDB32EE032AB4EE64
:10209000402AF1EE10FA26DB32EE032AB4EE402A93
:1020A000F1EE10FA1FDB32EE032AB4EE402AF1EE15
:1020B00010FAE3DA17E000BF32EE002AB5EE402A4C
:1020C000F1EE10FA14DA32EE002AB5EE402AF1EE03
:1020D00010FA0DDA32EE002AB5EE402AF1EE10FACF
:1020E00006DA32EE002AB5EE402AF1EE10FAE3DB12
:1020F00080ED022A4A88B1EE082AD2BA00EE102AF0
:10210000B8EEC00A20EE020A80EE010A9FED221A04
:1021100080ED070A8A88D2BA00EE102AB8EEC00A0B
:1021200020EE010AB3EE041A20EE010A80ED080A3F
:10213000897900EE101AB8EE400A80ED090A70475E
:102140009FED133A32EE032AB4EE412AF1EE10FA73
:10215000FFF65DAF32EE032AB4EE412AF1EE10FA3B
:10216000FFF655AF32EE032AB4EE412AF1EE10FA33
:10217000FFF64DAF32EE032AB4EE412AF1EE10FA2B
:10218000E0DA44E700F8FF450000B44300003443C0
:102190000000B4C3000034C300008038426890EDF2
:1021A0002A0A013AD31702EB937323F00303BDEE1F
:1021B000C00AD01A10EE102A130A01EB400C01F8E5
:1021C00010308CF801207047B0B52DED028B40F235
:1021D000B0050446C2F2000594ED023A95ED000AFE
:1021E0009FED5F2A33EE401A9FED5E0A31EE021A30
:1021F000C069B4EE401AF1EE10FAC4F8A40084ED00
:10220000273A63DAB4EE421AF1EE10FA1EDA9FEDC5
:10221000573A00BF31EE031AB4EE421AF1EE10FA4B
:1022200014DA31EE031AB4EE421AF1EE10FA0DDAB6
:1022300031EE031AB4EE421AF1EE10FA06DA31EE7C
:10224000031AB4EE421AF1EE10FAE3DB81EE000A53
:102250009FED471A20EE010A00F09EFA10EE100AD8
:1022600000F050FD9FED3A0B53EC102B00F04CFCAE
:102270009FED390B53EC102B00F046FC00F012FCE4
:1022800000EE100AB0EE081A80EE010AB2EE001A53
:1022900094F8B400022820EE010AB3EE041A80EE8E
:1022A000010A9FED341A20EE018A84ED2C8A2DD08C
:1022B000012847D194ED280AD4ED290A04F16000E1
:1022C00000F01CF938EE000A3AE000BF9FED263A14
:1022D00031EE031AB4EE401AF1EE10FA92DB31EE51
:1022E000031AB4EE401AF1EE10FA8BDB31EE031A4A
:1022F000B4EE401AF1EE10FAFFF684AF31EE031A95
:10230000B4EE401AF1EE10FAE2DA7BE794ED260A19
:10231000D4ED270A04F1280000F0F0F894ED2B1A10
:10232000D4ED270A85ED010A04F1600030EE010AC0
:1023300000F0E4F894ED2C1A85ED020A30EE010A63
:1023400084ED2A0ABDEC028BB0BD00BF00BF00BF08
:102350009A999999999913409A9999999999A93F14
:10236000000034C3000034430000B4C30000B44391
:10237000DA0F4940000080C62DE9F04F81B00026F9
:10238000044680ED000AC0E90116C0E90366C0E911
:102390000566C0E9076646620020C4F2C810A04680
:1023A00048F8280F00204CF6CD4AC4F2C820C3F6E6
:1023B000CC5A4FF0050BE0630820C4E90B66C4E972
:1023C0000DAB00F053F981460660E065082000F08F
:1023D0004DF907460660C9F80400082000F046F9E8
:1023E000054606607860082000F040F90746066060
:1023F0006860082000F03AF99FED260A7860C0E98D
:1024000000694046A66500F06BF80020C4F2302059
:10241000A04648F8600F0020C4F24820002104F1D3
:102420006402C4F2F81182E8030C0020C4F2C82050
:102430006067082000F01AF981460660C4F894002D
:10244000082000F013F907460660C9F804000820C8
:1024500000F00CF9054606607860082000F006F9E7
:10246000074606606860082000F000F99FED0A0A40
:102470007860C0E900694046C4F8906000F030F828
:1024800084F8B460C4E92A662046C4F8B06001B09C
:10249000BDE8F08F0000000000606A46B0B5044659
:1024A000006F01280CDB0025D4F894004168C4F8C3
:1024B0009410082100F0D8F8206F01358542F3DB35
:1024C000A06B01280ADB0025E06D4168E165082169
:1024D00000F0CAF8A06B01358542F5DB2046B0BD9F
:1024E0009FED051AB5EE400AF1EE10FAC8BFB0EE46
:1024F000401A80ED061A70470000000080B590ED8C
:10250000081A80ED070AB4EE601AF1EE10FA25D130
:1025100090ED093A90ED032A30EE410A90ED0B4A16
:1025200080ED0A3A30EE431AB7EE003A33EE423A03
:10253000416B23EE043A22EE011A90ED0C5A31EE73
:10254000032A91ED001A80ED090A35EE411A30EEAA
:10255000011A80ED0B2A80ED0C1A3CE00021026983
:10256000C162416B30EE600A012AC0ED080A80EDBD
:10257000090A28DB531E032B02F0030C12D322F0AE
:1025800003034FF0000E00BF4A68C1F800E0516835
:10259000C2F800E04A68C1F800E05168043BC2F8A4
:1025A00000E0F1D1BCF1000F0DD000220A604968B3
:1025B000BCF1010F07D00A604968BCF1020F02D0DC
:1025C00000220A60496891ED001A9FED222A30EE40
:1025D000411A80ED0C1A90ED003A90ED025A90ED00
:1025E000056A81ED000A25EE022A23EE000A4968F9
:1025F00030EE020AB1EE462AB4EE421A416390ED83
:10260000014AF1EE10FAB4EE461AB8BFB0EE421A23
:10261000F1EE10FAC8BFB0EE461A90ED062A24EE8D
:10262000011AB5EE402AF1EE10FA31EE000A08BFA9
:1026300080BDB1EE421AB4EE410AF1EE10FAB4EEEA
:10264000420AB8BFB0EE410AF1EE10FAC8BFB0EED0
:10265000420A80BD0000000040F2C800C2F2000043
:1026600000687047FDF7DBBEFFF7FCBF10B50446FE
:10267000002808BF012400BF2046FDF7A1FE002866
:1026800018BF10BDFFF7E8FF08B18047F4E700204E
:1026900010BD000041F20044C4F20204FEF72CFD1C
:1026A000FFF76CFBFFF7DAFAFFF7B8FAFFF734FB36
:1026B00020464FF48041FEF7FDFC4FF47A70FEF7A0
:1026C0000BFC20464FF48041FEF7F4FC4FF47A7087
:1026D000FEF702FC20464FF48041FEF7EBFC4FF47E
:1026E0007A70FEF7F9FB40F2D005C2F2000540F225
:1026F0000C01C2F200012846FEF77EF82846FEF7DC
:10270000AFFB28460221FEF70BF840F2F800C2F2B8
:102710000000FFF745F940F2BC05A4F58054C2F271
:1027200000050126002720460421C5E90167FEF7C0
:10273000BBFC287002E000BF2E7000BF20460421C1
:10274000FEF7B2FC012868700CD1A8680128F5D00A
:1027500028780028F0D06868C0F101006860012086
:10276000A860EBE7287801280EBF2F700020A86032
:10277000E4E74100080218BF04200A0E18BF40F029
:1027800001004FF07F4232EA010108BF40F0020031
:10279000012808BF0520704700B510EE101A2DED76
:1027A000028B81B0524A6846B2EB410F2ED94FF0EE
:1027B000E640B0EB410F94BF00204FF0FF30009097
:1027C0000098B0EE408A00286ADB10F0010F4BD071
:1027D00068EE080A9FED471A9FED470A00EE810A4E
:1027E0009FED461A10F0020F00EE801AB7EE000AB5
:1027F00000EE810A02BF01B0BDEC028B00BD00BF3C
:1028000001B0B1EE400ABDEC028B00BD3C4B21F0A3
:102810000042934241D911F0004FDFED3A0A20EE19
:10282000201ADFED390A19BF31EE601A71EE200A65
:1028300031EE201A71EE600ABDEEE01A11EE100AB8
:102840009FED321A00F0030000EEC10A9FED301A2E
:10285000009000EEC10A9FED2F1A00EEC10A9FED15
:102860002E1A00EEC10AABE728EE080A9FED2B1ADC
:10287000DFED2B0A10F0020F40EE010A9FED291A3E
:1028800000EE201A61EE000AB0EE480A08EE200AB7
:10289000B6D101B0BDEC028B00BD00F059F88FE756
:1028A00018EE100A4000B0F17F4F0DD218EE100A5A
:1028B000FFF75FFF042808BF00F042F8B0EE480AB7
:1028C00001B0BDEC028B00BD09D10120FDF7D3FDA5
:1028D00001B0BDEC028B5DF804EB00F029B801B04B
:1028E000B0EE480ABDEC028B5DF804EB00F01CB8BA
:1028F000B61F927EB93AB2BACA9F2A3DDDFFFFBE2B
:10290000490E494683F9223F0000004B0000C93FB1
:1029100000A0FD390020A2331A61342C336D4CB96C
:10292000DA82083CA0AA2ABE30EE000A70470000F6
:10293000DFED020A80EEA00A7047000000000000F0
:102940009FED020A20EE000A704700000000001010
:102950002DE9F0014FF07F42B2EB410F9FBF4FF0E6
:10296000FF310160BDE8F00170474FF0004242EADC
:102970000123C1F3C752783A551112F01F0C434C92
:10298000CCF120067C44C1F3C752A2F178024FEA91
:10299000621204EB820254F8254008BFD2E90156C6
:1029A00012D0556804FA0CF425FA06F73C439768F0
:1029B00005FA0CF527FA06F8D26807FA0CFCF24083
:1029C00045EA08054CEA0206A4FB034CA5FB0352AA
:1029D000A6FB03631D449D4234BF01260026131944
:1029E000334416B1934202D903E0934201D201224B
:1029F00000E00022624402F1200C9206DC0C42EA64
:102A0000443200EE102A5B03DFED210AF8EEC01A13
:102A100000EE103A4FEA9C1C11F0004FB8EE400A4D
:102A2000C0F800C020EE201A00EE105ADFED190A9F
:102A3000B8EE400A20EE200A71EE810A70EE800A9C
:102A400010EE902A02F500626FF30B0200EE902A5E
:102A500070EEE11A31EEC11ADFED101A30EE411AB4
:102A60009FED0D0A20EE800A01EE210A9FED0C1A5F
:102A700000EE810A04BFBDE8F0017047CCF180513F
:102A80000160BDE8F001B1EE400A70478404000027
:102A9000000000360000802C22AAFD29DB0FC92F80
:102AA0000000C92F21F0004201F00043A2F1605262
:102AB000B2F5801F28BFD2F17F6C0BD95FEA001CF2
:102AC00043EAC20242EB507018BF704728BF20F0A3
:102AD00001007047B2F5801FBCBF184670474FEA2F
:102AE000410C1CF5001F02D2084600F089B970B5F0
:102AF00000F0B4F800000089FFF7F6BF4FF0004087
:102B0000A0F580007047000070B5DFF848C11CEAEE
:102B1000111E1EBF1CEA13159EEA0C0F95EA0C0F3E
:102B200000F06F8081EA03044EEAD47EAE4421EACD
:102B30004C1123EA4C1341F4801143F48013AEF19D
:102B40007F7EA1FB024CA0FB0365361955EB0C05FB
:102B5000A1FB034C4CF10003A0FB021C16EB0C067E
:102B6000654153F10003094218BF46F0010613F412
:102B7000007F0BD14FEA03314FEA053041EA15518E
:102B800040EA165034036FF003020AE04FEAC32113
:102B90004FEAC52041EA555140EA5650F4026FF021
:102BA000020202EB2E4201EB025585EACE710AD0F9
:102BB0005FEA440C18BF24F0004450F1000041F1DA
:102BC000000120EAD47040F2FE7C624500D270BD64
:102BD000A84214BF4FF080444FF04044002E08BF7D
:102BE0000024BEF1806FA8BFA1F1C041BDE87040D4
:102BF00080F2828001F1C04101F000414FF00000FD
:102C000070470CEA13159EEA0C0F18BF95EA0C0FDB
:102C100006D081EA030E4FF000000EF0004170BDB7
:102C200000F01CF88900013E00F007B800F009B878
:102C30004FEA430C5FEA5C5C08D081EA030100F0D4
:102C40005BB84FEA410C5FEA5C5CF6D102494FF099
:102C5000000070470000FF070000F87F0EF1020E31
:102C60002EF0030E5EF8046B364205D4012A43EBC6
:102C7000030515F5001F12D8012841EB010C1CF5C6
:102C8000001F0CD80ED14FEAD17C0CEB4C0C0CF190
:102C9000020C15F5001F08BF4CEBD37C04E04FF08D
:102CA000080C01E04FEAD37C0CEB4C0526FA05F644
:102CB00006F00706B6F1040C06D20EEB860CBDE852
:102CC00070404CF0010C6047DFE80CF0090B020289
:102CD0004FF00041A1F500214FF0000070BD1946F2
:102CE0001046012851EB010418BFD4F5001484BF2D
:102CF000002001F0004170BD0808A0F500114FEA66
:102D00003101704743004FEAD30C4FEA3C0C43407B
:102D10001FBF40070CF1605113F0FE4F70471CF0CD
:102D2000006F03D10CF00041002070470CF000430D
:102D300043EA507040EACC0010B500F00EF800BF36
:102D4000000000924FEA0001FFF7D6BF4FF00041AC
:102D5000A1F500214FF0000070470EF1020E2EF099
:102D6000030E5EF8044B244204D44FEA4102B2F150
:102D70007F4F11D84FEA4003B3F17F4F0CD80ED1EB
:102D80004FEAD07C0CEB4C0C0CF1020CB2F17F4FF3
:102D900008BF4CEBD17C04E04FF0080C01E04FEA97
:102DA000D17C0CEB4C0324FA03F404F00704B4F1D7
:102DB000040C06D20EEB840CBDE810404CF0010C64
:102DC0006047DFE80CF0070802024FF00040A0F572
:102DD000800010BD0846420018BFD2F1807288BF43
:102DE00000F0004010BDF1EE100A4FF6FF71C0F286
:102DF000C03120EA010040F04070E1EE100A704757
:102E0000FF2141EAD050C0057047000000000000DB
:102E10006E83F9A22915444ED15727FCC0DD34F545
:102E2000999562DB4190433CAB6351FE000000008A
:102E3000000000000102030406070809602E0008D4
:102E40000000002050000000E8010008B02E00083B
:102E500050000020D80700000402000841F1FFFFE5
:102E600001000000100000000024F4000000000039
:102E70000000000000000000000000000000000052
:102E80000000000000000000010000000100000040
:102E90000000000000020000000000000000000030
:102EA000000000000800000000000000000000001A
:04000005080001AD41
:00000001FF
